:10000000F8FF002011040000FDAD0000CD6C0000E1
:10001000FDAD0000FDAD0000FDAD0000FDAD000038
:10002000FDAD0000FDAD0000FDAD0000FDAD000028
:10003000FDAD0000FDAD0000CB6C0000CF6C0000FA
:10004000996C0000FDAD0000FDAD0000FDAD0000AD
:10005000FDAD0000FDAD0000FDAD0000FDAD0000F8
:10006000FDAD0000FDAD0000FDAD0000FDAD0000E8
:10007000FDAD0000FDAD0000FDAD0000FDAD0000D8
:10008000FDAD0000FDAD0000FDAD0000FDAD0000C8
:10009000FDAD0000FDAD0000FDAD0000FDAD0000B8
:1000A000FDAD0000FDAD0000FDAD0000FDAD0000A8
:1000B000FDAD0000FDAD0000FDAD0000FDAD000098
:1000C000FDAD0000FDAD0000FDAD0000FDAD000088
:1000D000FDAD0000FDAD0000FDAD0000FDAD000078
:1000E000FDAD0000FDAD0000FDAD0000FDAD000068
:1000F000FDAD0000FDAD0000FDAD0000D16C0000C5
:10010000FDAD0000CD6E0000FDAD0000CF6E000023
:10011000FDAD0000FDAD0000FDAD0000D16E0000A2
:10012000FDAD0000FDAD0000FDAD0000FDAD000027
:10013000FDAD0000FDAD0000DF740000E1740000C3
:10014000E3740000FDAD0000FDAD0000FDAD00005A
:10015000D36E0000FDAD00000D730000FF720000C3
:10016000FDAD0000FDAD0000FDAD0000FDAD0000E7
:10017000FDAD0000FDAD0000FDAD0000FDAD0000D7
:10018000FDAD0000FDAD0000FDAD0000FDAD0000C7
:10019000FDAD0000FDAD0000FDAD00006973000085
:1001A000B17300001B730000C56B0000DD7400001C
:1001B000FDAD0000FDAD0000FDAD0000FDAD000097
:1001C000FDAD0000FDAD0000FDAD0000FDAD000087
:1001D000FDAD0000FDAD0000FDAD0000FDAD000077
:1001E000FDAD0000FDAD0000FDAD0000FDAD000067
:10040000FFFFFFFFFFFFFFFFFFFFFFFFFEFFFFFFFD
:1004100062B64FF000004FF000014FF000024FF0C5
:1004200000034FF000044FF000054FF000064FF0BE
:1004300000074FF000084FF000094FF0000A4FF09E
:10044000000B4FF0000C08F0A1FCFEE700B583B0F4
:100450000020DFF8681D08700020DFF8181D087004
:1004600000F0C1FCDFF8800D0079412804DA01209A
:10047000DFF8FC1C087003E00020DFF8F41C0870B3
:1004800001F05EFE00F0B8FE02F02AF903F041FA36
:1004900003F070FA0020DFF8E01C0870DFF8200D90
:1004A000007800285ED10120DFF8CC1C0870002005
:1004B000DFF8C01C0870DFF8340D0178DFF8300D6C
:1004C0000068DFF8282D1278282303FB020000F0D3
:1004D0008BF9DFF8A00C0078401DDFF80C1DC978FF
:1004E000884236DADFF88C0C0078401DDFF8F81C03
:1004F000097988422DDADFF87C0C0078401DDFF89E
:10050000E81C4979884224DADFF8900DDFF8D81C1E
:10051000097910EB8100DFF8D01C4978C160DFF861
:100520007C0DDFF8C41C097910EB81008C21C0F828
:10053000BC14DFF8B40C0079C11CDFF8B40C0068FF
:10054000DFF8A42C1279282303FB0200783000F096
:100550004BF9DFF8480DDFF81C1C097850F8210032
:1005600000F0A9FDDFF88C0C0078012840F017811D
:100570004FF6FF7001904FF478400090DFF8680C60
:10058000436B89A23C21FA2004F0DAF84FF6FF70A1
:1005900001904FF478400090DFF84C0C036B83A27D
:1005A0005021FA2004F0CCF84FF6FF7001904FF480
:1005B00078400090DFF8E40CDFF8B81B097850F8B9
:1005C0002130DFF8DC2C6421FA2004F0B9F84FF672
:1005D000FF7001904FF478400090DFF8C00CDFF816
:1005E000941B097810EB8100D0F8B034DFF8B42CFC
:1005F0007821FA2004F0A4F84FF6FF7001904FF430
:1006000078400090DFF8940CDFF8681B0978081830
:1006100041F2B0310B5C66A28C21FA2004F090F814
:100620004FF6FF7001904FF478400090DFF86C0CAB
:10063000DFF8401B097810EB8100D0F8303C5DA258
:10064000A021FA2004F07CF84FF6FF7001904FF4DF
:1006500078400090DFF8440CDFF8181B0978081880
:1006600010F5A550037854A2B421FA2004F068F8DC
:100670004FF6FF7001904FF478400090DFF81C0CAB
:10068000DFF8F01A097810EB8100D0F8F03F4BA2A8
:10069000C821FA2004F054F84FF6FF7001904FF48F
:1006A00078400090DFF8CC0A037845A2DC21FA20DC
:1006B00004F046F8DFF8080B007800280CD0022878
:1006C00020D014D3042833D027D3062846D03AD3D9
:1006D000082859D04DD362E04FF6FF7000904FF4D8
:1006E000784338A2DC21FA2003F056FF57E04FF69A
:1006F000FF7000904FF4784333A2DC21FA2003F01E
:100700004BFF4CE04FF6FF7000904FF478432FA260
:10071000DC21FA2003F040FF41E04FF6FF7000902B
:100720004FF478432AA2DC21FA2003F035FF36E0AB
:100730004FF6FF7000904FF4784326A2DC21FA2098
:1007400003F02AFF2BE04FF6FF7000904FF4784340
:1007500021A2DC21FA2003F01FFF20E04FF6FF70FA
:1007600000904FF478431DA2DC21FA2003F014FF1F
:1007700015E04FF6FF7000904FF4784318A2DC218B
:10078000FA2003F009FF0AE04FF6FF7000904FF4E3
:10079000784314A2DC21FA2003F0FEFEFFE70020DC
:1007A000DFF8041B087007BD464300004645000003
:1007B0004C0000004C5F560052000000525F560093
:1007C000487500004E0000004C70000052700000A0
:1007D0004C690000526900004C6F0000526F00002D
:1007E0004C570000525700002DE9F14F86B00C0025
:1007F0005FF0A0090A2004904FF49B70039000253D
:1008000000265FF0000B5FF0000A5FF06408002034
:100810008DF808000027F02C01DA002C01D500200B
:1008200077E1DFF8880A0078002807D1DFF87C0A32
:100830000078401CDFF8741A08700BE0DFF85C0ADF
:1008400050F824008146DFF8540A10EB8400D0F8F9
:10085000B0048046B8F1640F02DA6420804604E0F8
:10086000B8F1A10F01DBA020804600200700282F4F
:1008700012DA002008280DDA0699795CD0F1070217
:10088000114111F00101DFF8282A10EBC703995438
:10089000401CEFE77F1CEAE74E46DFF8140A3018E9
:1008A000C07801280BD1DFF8080A301880780128B9
:1008B00005D1DFF8FC0930184078012804D00398EE
:1008C000864201DA761CE8E7039886420ADA019646
:1008D0000120DFF8C819611811F5A5510870012031
:1008E000824608E0002082460020DFF8B019611837
:1008F00011F5A55108704D46DFF8B409281810F815
:10090000030C01280DD1DFF8A809281810F8020CF3
:10091000012806D1DFF89809281810F8010C0128E1
:1009200004D00498A84201DA6D1EE5E70498A842B5
:100930000ADA00950120DFF86419611841F2B0323B
:1009400050540120834608E0002083460020DFF851
:100950004C19611841F2B03250544D4501D04E450A
:100960001BD1002082460020DFF83019611811F5F4
:10097000A5510870002083460020DFF82019611877
:1009800041F2B032505401208DF808000120DFF808
:100990000C19611881F8C00308E000208DF80800E8
:1009A0000020DFF8F818611881F8C0039DF80800EE
:1009B00001281AD1E92C18DADFF8E00810EB8400DE
:1009C000C0F8149018F10900DFF8D01811EB840179
:1009D000C1F8C404611DDFF818080068282202FB72
:1009E0000400C830FFF700FF41E05AEA0B0000287E
:1009F0003DD0BBF1010F0BD0BAF1010F08D1019826
:100A0000B0EB080081460198B0EB480000902EE062
:100A1000BBF1010F0BD1BAF1010F08D0009818EB10
:100A200000008146009810EB480001901FE0BBF1E8
:100A3000010F1CD1BAF1010F19D101980099401A88
:100A400004F0D0F800225FF0804304F0E3F804F0F3
:100A500005FA804601980099081804F0C3F80022AE
:100A60005FF0804304F0D6F804F0F8F98146B9F15C
:100A7000230F02DA2320814605E0B9F58F7F02DBE0
:100A800040F21D108146B8F1640F02DA64208046FE
:100A900004E0B8F1A10F01DBA0208046DFF8FC07DD
:100AA00040F82490DFF8CC060078A04202DADFF8A4
:100AB000C40604700098B0F5A07F03DB40F23F103D
:100AC000009004E00098002801D5002000900098D4
:100AD000DFF8C81711EB8401C1F8300C0198B0F5AC
:100AE000A07F03DB40F23F10019004E00198002852
:100AF00001D5002001900198DFF8A01711EB8401C7
:100B0000C1F8F00FDFF8940710EB8400C0F8B08450
:100B1000002007B0BDE8F08F2DE9F14F88B00C0040
:100B20005FF0A0090A2007904FF49B700690002701
:100B300000265FF0000B5FF0000A5FF064080025FC
:100B4000F02C01DA002C01D5002049E1DFF8F00C8F
:100B50000078002807D1DFF8E80C0078401CDFF8A7
:100B6000E01C08700BE0DFF8340750F824008146E1
:100B7000DFF8280710EB8400D0F8B004804600208E
:100B80000500282D12DA002008280DDA0899695C82
:100B9000D0F10702114111F00101DFF8142710EB29
:100BA000C5039954401CEFE76D1CEAE74E46DFF899
:100BB00000073018C07801280BD1DFF8F406301890
:100BC0008078012805D1DFF8E80630184078012840
:100BD00004D00698864201DA761CE8E70698864239
:100BE0000ADA05960120DFF8B416611811F5A5514F
:100BF00008700120824608E0002082460020DFF8CD
:100C00009C16611811F5A55108704F46DFF8A00633
:100C1000381810F8030C01280DD1DFF894063818A5
:100C200010F8020C012806D1DFF88406381810F8F5
:100C3000010C012804D00798B84201DA7F1EE5E7CD
:100C40000798B8420ADA04970120DFF850166118B5
:100C500041F2B03250540120834608E00020834620
:100C60000020DFF83816611841F2B03250545AEAC9
:100C70000B00002848D0BBF1010F0BD0BAF1010FD7
:100C800008D10598B0EB080081460598B0EB480004
:100C9000049039E0BBF1010F0BD1BAF1010F08D07C
:100CA000049818EB00008146049810EB480005906A
:100CB0002AE0BBF1010F27D1BAF1010F24D1059829
:100CC0000499401A03F08EFF00225FF0804303F086
:100CD000A1FF04F0C3F88046B8F1640F02DA642083
:100CE000804604E0B8F18D0F01DB8C20804605982A
:100CF0000499081803F076FF00225FF0804303F0A8
:100D000089FF04F0ABF88146B9F1230F02DA232002
:100D1000814605E0B9F58F7F02DB40F21D10814668
:100D2000484603F05FFFCDE90201DFF8C004007818
:100D3000201A5FF0FF31484303F054FF0022DFF830
:100D4000043B04F0B1F8CDE90001DFF8A00400781D
:100D5000D0F1550003F046FF02000B00DDE9000171
:100D600003F058FF0022DFF8E03C04F06FF9DDE902
:100D7000022304F06BF904F071F8DFF8201541F854
:100D800024000498B0F5A07F03DB40F23F100490EC
:100D900004E00498002801D5002004900498DFF8AE
:100DA000FC1411EB8401C1F8300C0598B0F5A07F5C
:100DB00003DB40F23F10059004E00598002801D5C0
:100DC000002005900598DFF8D41411EB8401C1F8D8
:100DD000F00FDFF8C80410EB8400C0F8B0840020E6
:100DE00009B0BDE8F08F2DE9F043DFF8FC0300788F
:100DF000DFF8F4134978DFF8F02392780023002419
:100E000000255FF0EF0E764680B25FF0080E90FB93
:100E1000FEFEDFF8DC83D8F80080F6B25FF0280928
:100E200009FB06881EF808E080B25FF0080890FB16
:100E3000F8F909FB1809D9F107085EFA08FE5FEA1C
:100E4000CE7E3FD580B25FF0080E90FBFEFEDFF84D
:100E5000A083D8F80080F6B25FF0280909FB068865
:100E60001EEB080E1EF828EC80B25FF0080890FB1D
:100E7000F8F909FB1809D9F107085EFA08FE5FEADC
:100E8000CE7E1FD580B25FF0080E90FBFEFEDFF82D
:100E90006083D8F80080F6B25FF0280909FB068865
:100EA0001EEB080E1EF850EC80B25FF0080890FBB5
:100EB000F8F909FB1809D9F107085EFA08FE5FEA9C
:100EC000CE7E04D4F6B20A2E01DB761E9CE7F6B283
:100ED000EF2E02D05FF0010E7346DFF80CE38EF8C0
:100EE00003605FF0EF0E774689B25FF0080E91FB6A
:100EF000FEFEDFF8FC82D8F80080FFB25FF0280920
:100F000009FB07881EF808E089B25FF0080891FB2A
:100F1000F8F909FB1819D9F107085EFA08FE5FEA2B
:100F2000CE7E3FD589B25FF0080E91FBFEFEDFF862
:100F3000C082D8F80080FFB25FF0280909FB07885B
:100F40001EEB080E1EF828EC89B25FF0080891FB32
:100F5000F8F909FB1819D9F107085EFA08FE5FEAEB
:100F6000CE7E1FD589B25FF0080E91FBFEFEDFF842
:100F70008082D8F80080FFB25FF0280909FB07885B
:100F80001EEB080E1EF850EC89B25FF0080891FBCA
:100F9000F8F909FB1819D9F107085EFA08FE5FEAAB
:100FA000CE7E04D4FFB20A2F01DB7F1E9CE7FFB286
:100FB000EF2F02D05FF0010E7546DFF82CE28EF8BD
:100FC00004705FF0EF0EF44692B25FF0080E92FBF1
:100FD000FEFEDFF81C82D8F800805FFA8CFC5FF020
:100FE000280909FB0C881EF808E092B25FF0080897
:100FF00092FBF8F909FB1829D9F107085EFA08FEF7
:101000005FEACE7E41D592B25FF0080E92FBFEFE03
:10101000DFF8DC81D8F800805FFA8CFC5FF02809EB
:1010200009FB0C881EEB080E1EF828EC92B25FF04C
:10103000080892FBF8F909FB1829D9F107085EFAAC
:1010400008FE5FEACE7E20D592B25FF0080E92FBDA
:10105000FEFEDFF89C81D8F800805FFA8CFC5FF020
:10106000280909FB0C881EEB080E1EF850EC92B202
:101070005FF0080892FBF8F909FB1829D9F1070875
:101080005EFA08FE5FEACE7E07D45FFA8CFCBCF104
:101090000A0F02DBBCF1010C96E75FFA8CFCBCF195
:1010A000EF0F02D05FF0010E7446DFF83CE18EF8DE
:1010B00005C0BDE8F08370B5040040480078012801
:1010C00001D1002028E0DFF81C1C0E00200004F0F5
:1010D00031F8310004F048F804F062F8050001200E
:1010E0003649087036480078012803D03448007823
:1010F000022808D1D5F1A000DFF8441C0860DFF811
:10110000440C058007E0D4F1A000DFF8341C08602F
:10111000DFF8300C0480002070BD38B500250020B9
:101120000400E4B2052C14DA2821DFF86404006816
:101130002E4A1278E4B2052303FB04F39A182823FD
:1011400003FB020004F080F8062800DA6D1C641C22
:10115000E7E7EDB2022D09DB2348C078782803DBEE
:1011600021484079782801DA012000E0002032BDD2
:101170001376FF1F5029FF1F1D76FF1FDFF8C80BD6
:10118000006840F63D71884206D3DFF8C00B006866
:1011900040F2DD5188420DD2DFF8AC0B006840F21E
:1011A000DD51884208D3DFF8A40B006840F63D719A
:1011B000884201D3012000E0002070471276FF1F13
:1011C000CC04FF1FDFF8800B006840F67561884291
:1011D00006D2DFF8780B006840F67561884201D3CB
:1011E000012000E0002070479404FF1F1476FF1FC9
:1011F000E075FF1F1C76FF1F80B500F00AF800F0B5
:1012000059F800F023FC00F02DFD01F00CFA00204D
:1012100002BD10B50024DFF8380B0078002814D187
:1012200000F0A2FD0400E4B2002C0ED0FFF7A6FFF0
:1012300001280AD1DFF8180B0470DFF8180B0068DA
:1012400040084000DFF80C1B0860DFF8040B007852
:1012500005280ED1DFF8F80A90F8D80000281BD036
:10126000FFF7B0FF012817D10720DFF8E41A087054
:1012700012E0DFF8DC0A007806280DD1DFF8D00A8A
:1012800090F8D800002807D0FFF79CFF012803D171
:101290000820DFF8BC1A0870002010BDC013FF1F23
:1012A000ACAD0000B4AD00002176FF1F1576FF1F26
:1012B0008012FF1F2DE9704382B000208DF80000DE
:1012C000DFF88C0A0078012806D0DFF8840A00785D
:1012D000022801D0012059E100A800F05BF90600C6
:1012E0009DF80010300000F0AFFA16F1010F06D1A2
:1012F000DFF85C0AD0F8C000FFF7DDFE45E1DFF85B
:10130000500A0078012840F091809DF8000055288F
:101310003BDA300003F066FC80468946A6F23F10B7
:101320009DF80010DFF8302A1278891A484303F03C
:1013300059FC0022DFF80C3503F0B6FD04000D0067
:101340009DF80000DFF8081A91F8BD10401A03F06C
:1013500049FC02000B002000290003F05BFC0200A6
:101360000B004046494603F0A3FF00225FF0804394
:1013700003F050FC0022DFF8E43903F067FE03F0CD
:101380006DFDDFF8DC1908603AE0300003F02AFC5C
:1013900080468946A6F23F109DF80010DFF8B82974
:1013A0001278891A484303F01DFC0022DFF89434B8
:1013B00003F07AFD04000D009DF80000DFF890199D
:1013C00091F8BD10401A03F00DFC02000B00200044
:1013D000290003F01FFC02000B004046494603F0C1
:1013E00067FF00225FF0804303F014FC0022DFF867
:1013F000743903F02BFE03F031FDDFF86419086047
:10140000DFF85C090068232803DA2320DFF850198D
:101410000860DFF84C090068DFF83419C1F8C00033
:10142000DFF83C090068FFF746FE9EE0DFF8200980
:101430000078022840F099809DF8000055283FDA96
:10144000300003F0CFFB804689469DF80000DFF8AE
:1014500008190978401A00FB06F003F0C3FB0022CC
:10146000DFF8E03303F020FD04000D009DF80000DC
:10147000DFF8DC1891F8BD10401A03F0B3FB02004E
:101480000B002000290003F0C5FB02000B004046C2
:10149000494603F00DFF0022DFF8943C03F0D6FD2F
:1014A00000225FF0804303F0B5FB0022DFF8843CAC
:1014B00003F0CCFD03F0D2FCDFF8A41808603DE097
:1014C000300003F08FFB804689469DF80000DFF86E
:1014D00088180978401A00FB06F003F083FB00220D
:1014E000D84B03F0E1FC04000D009DF80000DFF88C
:1014F000601891F8BD10401A03F074FB02000B0055
:101500002000290003F086FB02000B0040464946FC
:1015100003F0CEFE0022DFF8183C03F097FD002216
:101520005FF0804303F076FB0022DFF80C3C03F011
:101530008DFD03F093FCDFF828180860DFF8200821
:101540000068B0F58F7F04DB40F21D10DFF8101843
:101550000860DFF80C080068DFF8F417C1F8C00075
:10156000DFF8FC070068FFF7A6FDDFF8D00B007876
:1015700001280AD11F22DFF8E007017889B2DFF8DD
:10158000E007006880B203F002FB0020BDE876832C
:10159000E075FF1F2DE9F14FBCB00A214FF49B729B
:1015A000002300240025002600275FF0000EDFF84E
:1015B000D40C406B0090DFF89807007802280AD11D
:1015C000DFF8C00C40782830DDF800C0604513DA41
:1015D0005FF0FF3030E1DFF87807007801280BD1A9
:1015E0000098DFF8A0CC9CF801C0BCF1280C604545
:1015F00002DA5FF0FF301FE100200700FFB2142F76
:1016000080F2A180DFF8800C0068FFB25FF0030C6D
:10161000DFF83C9799F8B6900CFB079C5FF028091F
:1016200009FB0C008046002086465FFA8EFEBEF164
:10163000280F1CDA0020C0B2082815DADFF8BCCC6D
:101640005FFA8EFE5FEACE0959FA80F95FFA8EFEE4
:101650001EF808A0D0F1070B5AFA0BFA1AF0010A8B
:1016600009F80CA0401CE6E71EF1010EDDE7DFF8EB
:10167000E006007802282ED100980400DFF87C0CE8
:101680002018C07801280BD1DFF8700C2018807862
:10169000012805D1DFF8640C20184078012803D018
:1016A000944201DA641CE9E7944204DA02A8FFB22A
:1016B00020F8174045E0DFF8CC0B40780A30844230
:1016C00004DA02A8FFB220F817203AE002A8FFB21D
:1016D00020F8172035E0DFF878060078012830D1AF
:1016E00000980300DFF8140C181810F8030C0128F8
:1016F0000DD1DFF8080C181810F8020C012806D1DB
:10170000DFF8F80B181810F8010C012803D09942E3
:1017100001DA5B1EE6E7994204DA0CA8FFB220F872
:1017200017300EE0DFF85C0B40780A38984204DA94
:101730000CA8FFB220F8171003E00CA8FFB220F8A5
:1017400017107F1C5AE7DFF808060078022831D10D
:1017500000200700FFB2132F64DA02A8FFB210EBDB
:10176000470040880DF1080CFFB23CF817C0B0EB01
:101770000C000DF1580CFFB24CF8270016A8FFB270
:1017800050F827001F2813DB0120060002A8FFB233
:1017900030F817000190FFB20320DFF8B4C59CF8C1
:1017A000B6C000FB07C0DDF8F0C08CF8000039E0DF
:1017B0007F1CCFE7DFF898050078012832D10020A0
:1017C0000700FFB2132F2DDA0CA8FFB210EB470071
:1017D00040880DF1300CFFB23CF817C0B0EB0C00A4
:1017E0000DF1A40CFFB24CF8270029A8FFB250F865
:1017F000270010F11E0F13DA012005000CA8FFB21C
:1018000030F817000190FFB20320DFF844C59CF8C0
:10181000B6C000FB07C0DDF8F0C08CF8000001E0A6
:101820007F1CCEE7F6B2002E05D1EDB2002D02D11D
:101830005FF0FF3000E001983DB0BDE8F08F0000A0
:101840001676FF1F0000F03FF8B504000D000027DA
:10185000DFF8FC040078012806D0DFF8F4040078F3
:10186000022801D00120EDE0DFF8E404007801282F
:1018700014D100200600F6B21D2E29DADFF8040A82
:10188000F6B23018407CDFF8FC19F6B27118097C0A
:10189000401A012800DB7F1C761CECE7DFF8B0045F
:1018A0000078022814D100200600F6B21D2E0FDAAF
:1018B000DFF8D009F6B23018407CDFF8C819F6B26C
:1018C0007118097C401A002800D57F1C761CECE7B3
:1018D000DFF87C040078012822D1DFF8A809406BEA
:1018E000DFF8A0194978503988420FDBDFF860042F
:1018F00090F8CC00401DA84205DADFF8880940784E
:101900003C30A04202DBFFB2172F30DBDFF840048F
:1019100090F8D900401CDFF8381481F8D90026E08F
:10192000DFF82C040078022821D1DFF8580940782C
:101930005030DFF85019496B88420FDBDFF8100494
:1019400090F8CC00401DA84205DADFF8380940784D
:101950003C38A04202DBFFB2172F08DBDFF8F003B0
:1019600090F8D900401CDFF8E81381F8D900DFF8BF
:10197000E00390F8D900052863DBDFF8D403007892
:1019800001282ED1DFF8780903F06DFD0320DFF880
:10199000C01308703220DFF8B813C1F8C40001206A
:1019A000DFF8AC1381F8CD00DFF8A403B0F8D00065
:1019B000DFF89C13A1F8CE00DFF89403D0F8C00044
:1019C00003F0B8FBDFF83C19C860DFF8B8084078CE
:1019D000DFF83419DFF8782392F8CC2041F82200A0
:1019E0002FE0DFF86C03007802282AD1DFF8100915
:1019F00003F039FD0420DFF85813087040F20D1091
:101A0000DFF84C13C1F8C4000120DFF8441381F85B
:101A1000CD00CF48B0F8D000CD49A1F8CE00CC48D9
:101A2000D0F8C00003F086FBDFF8D818C860DFF8F4
:101A300054084078DFF8D018C54A92F8CC2041F815
:101A400022000020F2BD00000000F0BF80B5C048B9
:101A50000078032805D0BE480078042801D0012072
:101A6000FFE00020DFF8A4180870B94800780328C8
:101A70000BD1DFF8100840784638DFF88C18B44AEC
:101A800092F8CC2041F822000EE0B14800780428FA
:101A90000AD1DFF8F00740784630DFF86C18AC4A1E
:101AA00092F8CC2041F82200DFF85C08A84991F8B0
:101AB000CC1010EB81006921C0F8B014A44890F854
:101AC000CC10DFF8C4070068A14A92F8CC20282384
:101AD00003FB0200FEF788FEDFF830080078401DA7
:101AE000DFF8A017C978884221DADFF820080078EB
:101AF000401DDFF890170979884218DADFF80C08E2
:101B00000078401DDFF87C17497988420FDADFF84A
:101B100074070079C11CDFF870070068DFF86427DC
:101B20001279282303FB02007830FEF75DFEDFF810
:101B3000D807DFF8D817097850F821008449C1F890
:101B4000C4008348D0F8C400FFF7B5FA8048D0F845
:101B5000DC007F49D1F8C41008187D49C1F8DC00C9
:101B60007B48B0F8E000401C7949A1F8E0007848D3
:101B700090F8D200012873D100F0CEFB012807D1E4
:101B8000734890F8DA00401C714981F8DA0003E0EC
:101B900000206F4981F8DA006D4890F8DA000228D9
:101BA0005EDBDFF86C0703F05EFC69480078032811
:101BB00029D16748D0F8DC006549B1F8E010B0FBE6
:101BC000F1F014386249C1F8C80005206049087076
:101BD00001205F4981F8D3005D48B0F8D6005C4928
:101BE000A1F8D40001205A4981F8E2005848B0F821
:101BF000E6005749A1F8E4005648006850F001009B
:101C0000544908602CE052480078042828D15048F4
:101C1000D0F8DC004E49B1F8E010B0FBF1F0143020
:101C20004B49C1F8C80006204949087001204849BD
:101C300081F8D3004648B0F8D6004549A1F8D40051
:101C40000120434981F8E2004148B0F8E6004049EC
:101C5000A1F8E4003F48006850F001003D490860E9
:101C6000002002BD10B5DFF8AC060078062806D0CB
:101C7000DFF8A0060078052801D0012031E0DFF868
:101C800094060078062813D100F02EF8012806D11A
:101C9000DFF88006D0F8C8001038040004E0DFF850
:101CA0007406D0F8C80004002000FFF704FA17E01B
:101CB000DFF860060078052812D100F015F8012839
:101CC00006D1DFF85006D0F8C8001030040004E058
:101CD000DFF84006D0F8C80004002000FFF7EBF959
:101CE000002010BD6C04FF1F38B500250020040043
:101CF000E4B20A2C12DA2821DFF88C050068164AB3
:101D00001278E4B2E3009A18282303FB020003F0E0
:101D10009BFA062800DA6D1C641CE9E7EDB2042D7D
:101D20000BDBDFF86005C078782804DBDFF85405AA
:101D30004079782801DA012000E0002032BD00005F
:101D40003C2AFF1F1076FF1FB029FF1FB429FF1F79
:101D5000CC04FF1FC0F00F401476FF1F000032C0FC
:101D60005429FF1F00003AC02DE9F04FADF51B7D4F
:101D70000A214FF49B720023002400250026002036
:101D80008DF8030000208DF8020000208DF801007E
:101D900000208DF8000000275FF0000E00200700F3
:101DA000FFB2282F80F28B80DFF8DC040068DFF8B8
:101DB00064C59CF8B6C05CFA87FC5FF0280909FB93
:101DC0000C008046002086465FFA8EFEBEF1280F8A
:101DD0001CDA0020C0B2082815DADFF820C55FFA47
:101DE0008EFE5FEACE0959FA80F95FFA8EFE1EF880
:101DF00008A0D0F1070B5AFA0BFA1AF0010A09F8F9
:101E00000CA0401CE6E71EF1010EDDE7DFF87404CC
:101E100040780400DFF8E4042018C07801280BD1D2
:101E2000DFF8D80420188078012805D1DFF8CC0429
:101E300020184078012803D0944201DA641CE9E7B5
:101E4000944207DADFF8CC04FFB210EB4700A0F8A9
:101E5000664006E0DFF8BC04FFB210EB4700A0F8D4
:101E60006620DFF8200440780300DFF8900418189B
:101E700010F8030C01280DD1DFF88004181810F8B1
:101E8000020C012806D1DFF87404181810F8010CB0
:101E9000012803D0994201DA5B1EE6E7994206DA8F
:101EA000DFF87004FFB210EB4700C38205E0DFF8F3
:101EB0006404FFB210EB4700C1827F1C70E7002072
:101EC0000700FFB2272F2ADADFF84804FFB210EB31
:101ED0004700008BDFF83CC4FFB21CEB470CBCF89A
:101EE00016C0B0EB0C000DF5E87CFFB24CF82700F3
:101EF000DFF82004FFB210EB4700B0F86800DFF80D
:101F000014C4FFB21CEB470CBCF866C0B0EB0C006D
:101F10000DF59A7CFFB24CF827007F1CD1E700201A
:101F20000700FFB2262F80F2D58074A8FFB210EB15
:101F3000870040680DF5E87CFFB25CF827C0B0EB85
:101F40000C000DF19C0CFFB24CF827004DA8FFB21D
:101F500010EB870040680DF59A7CFFB25CF827C053
:101F6000B0EB0C000DF1040CFFB24CF8270027A8D1
:101F7000FFB250F82700012804DB27A8FFB250F871
:101F8000270004E027A8FFB250F827004042DFF8FE
:101F90004CC79CF800C0604527DA74A8FFB250F81F
:101FA0002700012804DB74A8FFB250F8270004E0E2
:101FB00074A8FFB250F827004042012814DA74A830
:101FC000FFB210EB87004068012805DB74A8FFB260
:101FD00010EB8700406805E074A8FFB210EB8700A3
:101FE00040684042012800DB6D1C01A8FFB250F898
:101FF0002700012804DB01A8FFB250F8270004E005
:1020000001A8FFB250F827004042DFF8D0C69CF884
:1020100000C0604527DA4DA8FFB250F8270001281C
:1020200004DB4DA8FFB250F8270004E04DA8FFB232
:1020300050F827004042012814DA4DA8FFB210EBF7
:1020400087004068012805DB4DA8FFB210EB870030
:10205000406805E04DA8FFB210EB870040684042A1
:10206000012800DB761C27A8FFB250F8270010F1EA
:10207000280F12DADFF89C02FFB210EB4700C08A8B
:1020800033280ADBFFB2022097FBF0F0A84204DA03
:10209000012D02DB01208DF8010001A8FFB250F8EC
:1020A0002700292814DBDFF86C02FFB210EB470091
:1020B000B0F86600B0F5867F0ADCFFB2022097FB1D
:1020C000F0F0B04204DA012E02DB01208DF80000AE
:1020D0007F1C26E71E2D02DB01208DF803001E2E3B
:1020E00002DB01208DF802009DF80000002805D0D9
:1020F0009DF80100002801D0002014E09DF80300A5
:10210000002805D09DF80000012801D102200AE036
:102110009DF80200002805D09DF80100012801D19A
:10212000012000E000200DF51B7DBDE8F08F0000D0
:1021300000F0734000002040000030401C76FF1F7C
:10214000F8B500200700FFB21E2F6ADAB4200400A1
:10215000FFB20A2000FB07F00F30082190FBF1F0DE
:1021600049490968E4B2282202FB0411405CFFB22D
:102170000A2101FB07F10F31082291FBF2F303FB67
:102180001213D3F107010841C0073FD5FFB20A205F
:1021900000FB07F00F30082190FBF1F03A49096885
:1021A000E4B2282202FB0411401810F8280CFFB2F8
:1021B0000A2101FB07F10F31082291FBF2F303FB27
:1021C0001213D3F107010841C0071FD5FFB20A203F
:1021D00000FB07F00F30082190FBF1F02A49096855
:1021E000E4B2282202FB0411401810F8500CFFB290
:1021F0000A2101FB07F10F31082291FBF2F303FBE7
:102200001213D3F107010841C00704D4E4B20A2C29
:1022100001DB641E9CE71B48FFB2381804747F1C66
:1022200091E7DFF8F0000078022806D11E21DFF8E0
:10223000140502F0F0FF050005E01E21DFF804059B
:1022400002F0D0FF0500EDB20A2000FB05F00F30D0
:102250000600DFF8F4241421300000F017F80949D3
:102260004863DFF8E8040078012809D147F6FF72D7
:102270000448016B89B20348406B80B202F087FCCE
:102280000020F2BD9404FF1FE075FF1F2DE9F0410F
:1022900088B004000D00160000200700AF420BDAE2
:1022A000C821022095FBF0F0201A381801F0D8FD63
:1022B00000A978547F1CF1E7DFF858000078022865
:1022C00006D1290089B200A802F0A5FF804605E0EA
:1022D000290089B200A802F085FF804600A85FFAB5
:1022E00088F818F800003060022095FBF0F0201A02
:1022F00050FA88F008B0BDE8F08100008012FF1F9E
:102300001804FF1F8004FF1FC013FF1F5029FF1F69
:102310002004FF1FCC04FF1FF0B4C1B00021002037
:10232000DFF894482478042C40F0B4800024230083
:10233000DBB21E2B60DAC8242200DBB29C001E3404
:10234000082594FBF5F4DFF874582D68D2B22826DE
:1023500006FB0255645DDBB29D001E35082695FB29
:10236000F6F707FB1657D7F107052C41E40739D5D7
:10237000DBB29C001E34082594FBF5F4DFF83C58D2
:102380002D68D2B2282606FB0255641914F8284C91
:10239000DBB29D001E35082695FBF6F707FB1657A6
:1023A000D7F107052C41E4071CD5DBB29C001E3495
:1023B000082594FBF5F4DFF804582D68D2B22826DE
:1023C00006FB0255641914F8504CDBB29D001E3513
:1023D000082695FBF6F707FB1657D7F107052C41A2
:1023E000E40704D4D2B20A2A01DB521EA5E700ACEE
:1023F000DBB21A555B1C9BE700242300DBB21D2BCC
:102400000DDA00ACDBB21C19647800ADDBB25D5DA7
:10241000641B24ADDBB245F823405B1CEEE70024CF
:102420002300DBB21C2B80F2FA8024ACDBB214EB6D
:102430008304646824ADDBB255F82350641B08ADF7
:10244000DBB245F8234008ACDBB254F82340012C42
:1024500004DB08ACDBB254F8234004E008ACDBB288
:1024600054F823406442052C00DA491C08ACDBB266
:1024700054F8234014F10F0F0ADADBB2022493FB65
:10248000F4F48C4204DA012902DB01242000C6E0C6
:102490005B1CC6E7DFF820472478032C40F0BF80A0
:1024A00000242300DBB21E2B6CDAC824220040F289
:1024B0002114DBB2B4EB8304082594FBF5F4DFF8B8
:1024C000FC562D68D2B2282606FB0255645D40F208
:1024D0002115DBB2B5EB8305082695FBF6F707FB64
:1024E0001657D7F107052C41E40741D540F22114D6
:1024F000DBB2B4EB8304082594FBF5F4DFF8BC569B
:102500002D68D2B2282606FB0255641914F8284C0F
:1025100040F22115DBB2B5EB8305082695FBF6F7F3
:1025200007FB1657D7F107052C41E40720D540F2E9
:102530002114DBB2B4EB8304082594FBF5F4DFF837
:102540007C562D68D2B2282606FB0255641914F871
:10255000504C40F22115DBB2B5EB8305082695FB04
:10256000F6F707FB1657D7F107052C41E40704D40B
:10257000D2B20A2A01DB521E99E700ACDBB21A552F
:102580005B1C8FE700242300DBB21D2B0DDA00ACAF
:10259000DBB21C19647800ADDBB25D5D641B24AD59
:1025A000DBB245F823405B1CEEE700242300DBB2DE
:1025B0001C2B34DA24ACDBB214EB8304646824AD46
:1025C000DBB255F82350641B08ADDBB245F823405D
:1025D00008ACDBB254F82340012C04DB08ACDBB2BE
:1025E00054F8234004E008ACDBB254F823406442C2
:1025F000052C00DA491C08ACDBB254F8234014F176
:102600000F0F0ADADBB2022493FBF4F48C4204DAF3
:10261000012902DB0124200001E05B1CC7E7C0B2F6
:1026200041B0F0BC704780B5DFF88C050078072812
:1026300006D0DFF884050078082801D001204BE09F
:102640000020DFF87C150870DFF86C05007808289A
:102650000CD1DFF8700540780F30DFF86C15DFF82B
:10266000582592F8CC2041F8220010E0DFF8480508
:10267000007807280BD1DFF84C0540780F38DFF8D9
:102680004815DFF8342592F8CC2041F82200DFF815
:102690003805DFF8241591F8CC1010EB8100692182
:1026A000C0F8B014DFF8100590F8CC10DFF8A000E7
:1026B0000068DFF8042592F8CC20282303FB0200F1
:1026C000FEF792F8DFF80005DFF8F414097850F807
:1026D0002100FEF7F0FC002002BD00009011FF1F5A
:1026E00080B5DFF8D4040078002803D1FEF746FD5A
:1026F000012801D101200AE00020DFF8E01908706C
:1027000000F006F800F026F801F022F8002002BDE3
:1027100010B50024DFF8C4090078032809D0DFF8D9
:10272000BC090078042804D0DFF8B0090078052837
:1027300001D1012005E000F07BFE00F047FA040023
:10274000002010BDA404FF1FC404FF1F1C76FF1F40
:10275000E075FF1F2DE9F04383B0DFF880090078B2
:10276000032806D0DFF874090078042801D001207E
:1027700020E200A901A800F0BFFC0600DFF85C0918
:102780000078032840F00C810120DFF8501988738D
:10279000DFF848098089DFF844194881300002F0E9
:1027A00021FA804689460098DFF834190978401AE2
:1027B00000FB06F002F016FA0022DFF8283902F0DA
:1027C00073FB04000D0000980199401A02F00AFA08
:1027D00002000B002000290002F01CFA02000B008E
:1027E0004046494602F064FD0022DFF8FC3802F062
:1027F0002DFC00225FF0804302F00CFA0022DFF88B
:10280000EC3802F023FC02F029FB0700DFF8B403E8
:1028100040780A30B8424DDAB7F58F7F02DB40F2DC
:102820001D1007003800FEF746FCDFF8C4080078EA
:102830000A2803DB0020DFF8B8180870DFF89C08CE
:102840004068DFF8B018DFF8A828127831F81210C5
:10285000401ADFF888184860DFF89808DFF8901809
:10286000097820F81170DFF874084068DFF88418E0
:10287000DFF87C28127831F8121010FA81F0DFF8B6
:102880005C184860DFF868080078401CDFF86018C2
:102890000870DFF88C0B0078012840F08A8147F639
:1028A000FF72DFF83C08017889B2380080B202F08C
:1028B0006EF97EE1C3480079C249C9780A39884275
:1028C00006DBC0484079BF4909790A39884249DAAC
:1028D0000020BB490870DFF808080178B748006895
:1028E000DFF8FC271278282303FB0200FDF77CFFAA
:1028F000B3480078401DB349C97888421ADAB04815
:102900000078401DAF490979884213DAAC48007855
:10291000401DAC49497988420CDAAA480079C11CAB
:10292000A6480068A74A1279282303FB02007830E2
:10293000FDF75AFFA448A249097850F82100AB28B6
:1029400007DBA1489E49097850F82100FEF7B3FB48
:102950002FE1DFF8880740680A2190FBF1F0FEF7CD
:10296000AAFB26E1DFF8740740680A2190FBF1F02A
:10297000FEF7A1FBDFF8A80A0078012840F01981D2
:102980004FF61F02DFF85807017889B2DFF84C07CD
:1029900040680A2390FBF3F080B202F0F8F808E1F7
:1029A000DFF838070078042840F003810120DFF8C1
:1029B0002C178873DFF824078089DFF820174881F7
:1029C000300002F00FF980468946A6F23F100099C8
:1029D000DFF80C271278891A484302F003F9002225
:1029E000DFF8003702F060FA04000D00009801994A
:1029F000401A02F0F7F802000B002000290002F054
:102A000009F902000B004046494602F051FC002241
:102A10005FF0804302F0FEF80022DFF8083A02F08F
:102A200015FB02F01BFA0700664840780A38874217
:102A30004BDA232F01DA232007003800FEF73BFB97
:102A4000DFF8AC0600780A2803DB0020DFF8A016C8
:102A50000870DFF888064068DFF89816DFF89026DF
:102A6000127831F81210401ADFF870164860DFF85B
:102A70008406DFF87C16097820F81170DFF85C0610
:102A80004068DFF87016DFF86826127831F8121007
:102A900010FA81F0DFF844164860DFF85406007839
:102AA000401CDFF84C160870DFF874090078012824
:102AB00040F07F8047F6FF72DFF82406017889B284
:102AC000380080B202F063F873E03E4800793D4977
:102AD00049790A39884206DB3A48C0783949097988
:102AE0000A39884249DA002035490870DFF8F005D4
:102AF000017832480068DFF8E8251278282303FBC4
:102B00000200FDF771FE2E480078401D2D49C9785E
:102B100088421ADA2A480078401D2A4909798842F1
:102B200013DA27480078401D2649497988420CDA93
:102B300024480079C11C21480068224A12792823C0
:102B400003FB02007830FDF74FFE1F481C4909784F
:102B500050F82100962807DA1B481949097850F8DF
:102B60002100FEF7A8FA24E0DFF8700540680A218A
:102B700090FBF1F0FEF79FFA1BE0DFF8600540687C
:102B80000A2190FBF1F0FEF796FADFF8940800783E
:102B900001280ED14FF61F02DFF84405017889B2F3
:102BA000DFF8380540680A2390FBF3F080B201F0AB
:102BB000EEFF0020BDE8FE83CC04FF1FE075FF1F81
:102BC0005029FF1F9404FF1FC013FF1F2DE9F04F72
:102BD000ADF2AC5D0A2003904FF49B7002905FF061
:102BE000000800270024002500208DF807000020A1
:102BF0008DF8060000208DF8010000208DF80000FF
:102C000000208DF8030000208DF8020000200590C0
:102C1000002004905FF0000B5FF0000900208DF8A9
:102C2000050000208DF80400002008900020079087
:102C30005FF0000A0026002082465FFA8AFABAF1A5
:102C40003C0F80F29680DFF8E0070068DFF88C1414
:102C5000097A5FFA8AFAB1EB4A01282202FB0100E5
:102C6000069000200600F6B2282E17DA0020C0B227
:102C7000082811DADFF8B417F6B2F20052FA80F23F
:102C8000069BF6B2F35CD0F1070C53FA0CF313F089
:102C900001035354401CEAE7761CE4E7DFF83C04E8
:102CA000007802282AD1DFF8A40A406B0700DFF879
:102CB0007C073818C07801280BD1DFF87007381866
:102CC0008078012805D1DFF864073818407801289A
:102CD00004D00298874201DA7F1CE8E70298874215
:102CE00005DAF3A85FFA8AFA40F82A703EE0029803
:102CF000F3A95FFA8AFA41F82A0037E0DFF8DC032B
:102D00000078012832D1DFF8440A406B8046DFF8B2
:102D10001C0718EB000010F8030C01280FD1DFF896
:102D20000C0718EB000010F8020C012807D1DFF89F
:102D3000FC0618EB000010F8010C012805D00398E0
:102D4000404502DAB8F10108E1E70398404506DAA8
:102D5000FFA8C0305FFA8AFA40F82A8006E003989C
:102D6000FFA9C0315FFA8AFA41F82A001AF1010A74
:102D700063E7DFF868030078022878D100208246F4
:102D80005FFA8AFABAF13B0F22DAF3A85FFA8AFAFD
:102D900010EB8A004068F3A95FFA8AFA51F82A100A
:102DA000401A7DA95FFA8AFA41F82A007DA85FFAE5
:102DB0008AFA50F82A0010F1640F06DA01208DF823
:102DC00004005FFA8AFACDF81CA01AF1010AD7E7CD
:102DD000002082465FFA8AFABAF13B0F80F2C58082
:102DE0009DF8000000280AD17DA85FFA8AFA50F801
:102DF0002A00012803DA0498401C049034E09DF86E
:102E00000000002823D15FFA8AFABAF1320F1EDAE5
:102E10007DA85FFA8AFA50F82A00012817DB7DA8FE
:102E20005FFA8AFA10EB8A00406801280FDB7DA860
:102E30005FFA8AFA10EB8A008068012807DB01201C
:102E40008DF8000019F101098DF802A00CE09DF841
:102E50000000012808D17DA85FFA8AFA50F82A00FC
:102E6000012801DB19F101091AF1010AB2E7DFF8C3
:102E70006C020078012878D1002082465FFA8AFA35
:102E8000BAF13B0F23DAFFA8C0305FFA8AFA10EBE1
:102E90008A004068FFA9C0315FFA8AFA51F82A1007
:102EA000401AB8A95FFA8AFA41F82A00B8A85FFA6E
:102EB0008AFA50F82A00652806DB01208DF8050003
:102EC0005FFA8AFACDF820A01AF1010AD6E70020AD
:102ED00082465FFA8AFABAF13B0F46DA9DF80100A2
:102EE00000280AD1B8A85FFA8AFA50F82A00002808
:102EF00003D40598401C059034E09DF8010000289B
:102F000023D15FFA8AFABAF1320F1EDAB8A85FFA53
:102F10008AFA50F82A00002817D5B8A85FFA8AFA6A
:102F200010EB8A00406800280FD5B8A85FFA8AFA2B
:102F300010EB8A008068002807D501208DF8010079
:102F40001BF1010B8DF803A00CE09DF80100012896
:102F500008D1B8A85FFA8AFA50F82A00002801D5EB
:102F60001BF1010B1AF1010AB3E75C480078022853
:102F700036D1002082465FFA8AFABAF13A0F29DA8E
:102F80007DA85FFA8AFA10EB8A0040687DA95FFA93
:102F90008AFA51F82A10401A09A95FFA8AFA41F808
:102FA0002A0009A85FFA8AFA50F82A00012805DBEE
:102FB00009A85FFA8AFA50F82A0005E009A85FFA22
:102FC0008AFA50F82A004042052800DA6D1C1AF1EE
:102FD000010AD0E71F2D3DDB01208DF8060039E006
:102FE0003E480078012835D1002082465FFA8AFAEF
:102FF000BAF13A0F29DAB8A85FFA8AFA10EB8A0018
:103000004068B8A95FFA8AFA51F82A10401A43A911
:103010005FFA8AFA41F82A0043A85FFA8AFA50F860
:103020002A00012805DB43A85FFA8AFA50F82A0033
:1030300005E043A85FFA8AFA50F82A0040420528C2
:1030400000DA641C1AF1010AD0E71F2C02DB012010
:103050008DF8070021480078022818D19DF8060055
:10306000002835D09DF80000002831D09DF80200DE
:1030700006282DDB9DF802002D2829DA9DF8040092
:10308000002825D0042015490870012021E01348AC
:10309000007801281CD19DF80700002818D09DF861
:1030A0000100002814D09DF80300062810DB9DF8CD
:1030B00003002D280CDA9DF80500002808D0DFF861
:1030C000AC0802F0D0F9032004490870012000E0A8
:1030D00000200DF2AC5DBDE8F08F0000B805FF1FC9
:1030E0001476FF1F0000F03F00F073400000144012
:1030F0001776FF1F5829FF1FF0B5B6B00200002356
:10310000A020DFF86C683678032E40F0B4800026EB
:103110003500EDB2192D60DAEF263400EDB2AE00C5
:10312000082796FBF7F6DFF800733F68E4B25FF01C
:10313000280C0CFB0477F65DEDB2AF005FF0080CD5
:1031400097FBFCFE0EFB1C7EDEF107073E41F607F7
:1031500039D5EDB2AE00082796FBF7F6DFF8C87256
:103160003F68E4B25FF0280C0CFB0477F61916F800
:10317000286CEDB2AF005FF0080C97FBFCFE0EFB75
:103180001C7EDEF107073E41F6071CD5EDB2AE000E
:10319000082796FBF7F6DFF890723F68E4B25FF01D
:1031A000280C0CFB0477F61916F8506CEDB2AF0042
:1031B0005FF0080C97FBFCFE0EFB1C7EDEF10707A0
:1031C0003E41F60704D4E4B20A2C01DB641EA5E7F5
:1031D00000AEEDB2AC556D1C9BE700263500EDB29C
:1031E000182D0DDA00AEEDB2AE19767800AFEDB263
:1031F000EF5DF61B1EAFEDB247F825606D1CEEE7E4
:1032000000263500EDB2172D31DA1EAEEDB216EB09
:10321000850676681EAFEDB257F82570F61B07AF2E
:10322000EDB247F8256007AEEDB256F82560012EE5
:1032300004DB07AEEDB256F8256004E007AEEDB250
:1032400056F825607642052E00DA5B1C07AEEDB21B
:1032500056F8256016F10F0F07DAEDB2022695FB3E
:10326000F6F69E4201DA012B01DA6D1CCAE7EDB2D7
:10327000AE003000CAE0DFF8F8663678042E40F081
:10328000C58000263500EDB2192D6FDAEF26340027
:1032900040F23F16EDB2B6EB8506082796FBF7F62F
:1032A000614F3F68E4B25FF0280C0CFB0477F65DD9
:1032B00040F23F17EDB2B7EB85075FF0080C97FBC4
:1032C000FCFE0EFB1C7EDEF107073E41F60743D5F0
:1032D00040F23F16EDB2B6EB8506082796FBF7F6EF
:1032E000514F3F68E4B25FF0280C0CFB0477F619ED
:1032F00016F8286C40F23F17EDB2B7EB85075FF088
:10330000080C97FBFCFE0EFB1C7EDEF107073E411E
:10331000F60721D540F23F16EDB2B6EB8506082739
:1033200096FBF7F6404F3F68E4B25FF0280C0CFBC9
:103330000477F61916F8506C40F23F17EDB2B7EB70
:1033400085075FF0080C97FBFCFE0EFB1C7EDEF190
:1033500007073E41F60704D4E4B20A2C01DB641EE1
:1033600096E700AEEDB2AC556D1C8CE7002635003B
:10337000EDB2182D0DDA00AEEDB2AE19767800AFD1
:10338000EDB2EF5DF61B1EAFEDB247F825606D1C88
:10339000EEE700263500EDB2172D31DA1EAEEDB2A4
:1033A00016EB850676681EAFEDB257F82570F61B52
:1033B00007AFEDB247F8256007AEEDB256F82560CD
:1033C000012E04DB07AEEDB256F8256004E007AE2F
:1033D000EDB256F825607642052E00DA5B1C07AE8A
:1033E000EDB256F8256016F10F0F07DAEDB202269E
:1033F00095FBF6F69E4201DA012B01DA6D1CCAE755
:1034000040F23F16EDB2B6EB850630009DF8006045
:10341000166000AEEDB2AE5D0E60C0B236B0F0BD6B
:103420001C76FF1F000014C0E075FF1F8012FF1FF5
:10343000F0B4B6B00023002400200200D2B20A2A61
:1034400080F2DC80EF200100D2B2032000FB02F00A
:10345000082590FBF5F0DFF8A05A2D68C9B22826A0
:1034600006FB0155405DD2B2032505FB02F5082697
:1034700095FBF6F707FB1657D7F107052841C0075C
:103480003DD5D2B2032000FB02F0082590FBF5F0F9
:10349000DFF8645A2D68C9B2282606FB0155401989
:1034A00010F8280CD2B2032505FB02F5082695FB7F
:1034B000F6F707FB1657D7F107052841C0071ED5B9
:1034C000D2B2032000FB02F0082590FBF5F0DFF8F4
:1034D000285A2D68C9B2282606FB0155401910F854
:1034E000500CD2B2032505FB02F5082695FBF6F732
:1034F00007FB1657D7F107052841C00704D4C9B206
:10350000822901DB491E9FE7C9B22CA8D2B240F83C
:103510002210EF20010040F23F10D2B2032505FB3C
:103520001200082590FBF5F0DFF8CC592D68C9B2E0
:10353000282606FB0155405D40F23F15D2B2032616
:1035400006FB1255082695FBF6F707FB1657D7F131
:1035500007052841C00745D540F23F10D2B20325E8
:1035600005FB1200082590FBF5F0DFF88C592D685B
:10357000C9B2282606FB0155401910F8280C40F264
:103580003F15D2B2032606FB1255082695FBF6F727
:1035900007FB1657D7F107052841C00722D540F28F
:1035A0003F10D2B2032505FB1200082590FBF5F071
:1035B000DFF844592D68C9B2282606FB0155401989
:1035C00010F8500C40F23F15D2B2032606FB1255FC
:1035D000082695FBF6F707FB1657D7F10705284194
:1035E000C00704D4C9B2822901DB491E93E7C9B2DE
:1035F00022A8D2B240F82210521C1FE7002002007D
:10360000D2B2092A1DDA2CA8D2B210EB820040688F
:103610002CADD2B255F82250401B19ADD2B245F8AC
:10362000220022A8D2B210EB8200406822ADD2B2B2
:1036300055F82250401B10ADD2B245F82200521C62
:10364000DEE700200200D2B2082A67DA19A8D2B257
:1036500010EB8200406819ADD2B255F82250401BE1
:1036600008ADD2B245F8220010A8D2B210EB820009
:10367000406810ADD2B255F82250401B00ADD2B216
:1036800045F8220008A8D2B250F82200012804DB35
:1036900008A8D2B250F8220004E008A8D2B250F82C
:1036A00022004042052812DA19A8D2B250F82200AE
:1036B000012804DB19A8D2B250F8220004E019A8AE
:1036C000D2B250F822004042012800DB5B1C00A867
:1036D000D2B250F82200012804DB00A8D2B250F880
:1036E000220004E000A8D2B250F82200404205288F
:1036F00012DA10A8D2B250F82200012804DB10A878
:10370000D2B250F8220004E010A8D2B250F8220041
:103710004042012800DB641C521C94E7052B03DBAC
:10372000052C01DB01200DE0052B04DB0120DFF877
:10373000CC57287005E0052C03DB0220DFF8BC57CE
:103740002870002036B0F0BC704700009404FF1FC2
:1037500038B587480078042803D0854800780328C6
:1037600001D1012021E0FDF7D8FC01281CD1DFF8B0
:103770009007406B04009621200000F071FB14308C
:103780000500DFF8700740F825402900DFF87407CE
:103790000068282202FB0500FDF7BEF9DFF8540798
:1037A00050F82500FDF787FC002032BD2DE9F041DF
:1037B000962200230024002500260020002739003F
:1037C000C9B2042980F2A28000273C00DFF83477D8
:1037D0003F68C9B25FF00A0C0CFB01FC5CFA82FC8A
:1037E0005FF0280E0EFB0C773F78FFB2FF09FFB2A7
:1037F000002F02D101273E0001E000273E00B4F572
:10380000A07F7DDAE71C5FF0080C97FBFCF7DFF880
:10381000F4C6DCF800C0C9B25FF00A0E0EFB01FE70
:103820005EFA82FE5FF0280808FB0ECC17F80C70D9
:1038300014F1030C5FF0080E9CFBFEF808FB1EC899
:10384000D8F1070C57FA0CF717F00107F6B2B74298
:1038500054D1A71C5FF0080C97FBFCF7DFF8A4C657
:10386000DCF800C0C9B25FF00A0E0EFB01FE5EFA82
:1038700082FE5FF0280808FB0ECC17F80C7014F1DC
:10388000020C5FF0080E9CFBFEF808FB1EC8D8F186
:10389000070C57FA0CF717F00107F6B2B7422DD113
:1038A000671C5FF0080C97FBFCF7DFF858C6DCF8E4
:1038B00000C0C9B25FF00A0E0EFB01FE5EFA82FE86
:1038C0005FF0280808FB0ECC17F80C7014F1010CFF
:1038D0005FF0080E9CFBFEF808FB1EC8D8F1070C31
:1038E00057FA0CF717F00107F6B2B74206D16D1C74
:1038F000F6B2002E01D1012600E00026641C7EE70E
:10390000EDB20D2D00DB401C491C59E7C0B2BDE8EB
:10391000F08110B5DFF8F0050079012823D1FFF719
:1039200045FF02281FDB0120DFF8DC154871DFF8B6
:10393000D8050089DFF8D015C880DFF8C405406BD2
:103940000400DFF8B005C0F854415521DFF8A805A0
:10395000006800F64850FCF747FFDFF89805D0F8FC
:103960005401FDF7A8FB002010BD00002004FF1F3C
:10397000B805FF1F2DE9F04FADF5337D5FF0000A6C
:1039800040F23F1900208DF8010000208DF8000062
:103990000020059000240026002737200190FA20FF
:1039A00004900A2003904FF49B70029000208346FD
:1039B0005FFA8BFBBBF1280F76DAC82005005FFAAF
:1039C0008BFB052000FB0BF03730082190FBF1F05A
:1039D000DFF824150968EDB2282202FB0511405CCE
:1039E0005FFA8BFB052101FB0BF13731082291FBBC
:1039F000F2F303FB1213D3F107010841C00745D5C9
:103A00005FFA8BFB052000FB0BF03730082190FBA1
:103A1000F1F0DFF8E4140968EDB2282202FB051189
:103A2000401810F8280C5FFA8BFB052101FB0BF105
:103A30003731082291FBF2F303FB1213D3F1070194
:103A40000841C00722D55FFA8BFB052000FB0BF075
:103A50003730082190FBF1F0DFF89C140968EDB2D3
:103A6000282202FB0511401810F8500C5FFA8BFB5E
:103A7000052101FB0BF13731082291FBF2F303FB27
:103A80001213D3F107010841C00704D4EDB20A2D87
:103A900001DB6D1E93E7EDB28BA85FFA8BFB40F85C
:103AA0002B501BF1010B83E7002083465FFA8BFB51
:103AB000BBF1270F13DA8BA85FFA8BFB10EB8B009F
:103AC00040688BA95FFA8BFB51F82B10401A64A950
:103AD0005FFA8BFB41F82B001BF1010BE6E700209E
:103AE00083465FFA8BFBBBF1260F66DA64A85FFAA8
:103AF0008BFB10EB8B00406864A95FFA8BFB51F8DD
:103B00002B10401A3EA95FFA8BFB41F82B003EA810
:103B10005FFA8BFB50F82B00012805DB3EA85FFA0B
:103B20008BFB50F82B0005E03EA85FFA8BFB50F8AA
:103B30002B00404205281CDA64A85FFA8BFB50F882
:103B40002B00012805DB64A85FFA8BFB50F82B00E3
:103B500005E064A85FFA8BFB50F82B004042052873
:103B600007DA8BA85FFA8BFB50F82B00792800DB73
:103B7000761CFFB2002F0DD13EA85FFA8BFB50F8E8
:103B80002B0010F1280F05DA7F1C5FFA8BFBCDF8B4
:103B900004B00FE0FFB2012F0CD13EA85FFA8BFBFF
:103BA00050F82B0010F1280F04DA7F1C5FFA8BFB12
:103BB000CDF810B01BF1010B93E7102EC0F24B8132
:103BC000FFB2022F40F0478104980199401A411E2C
:103BD00089B28BA8019A10EB8200001D01F04EFB08
:103BE0000790002083465FFA8BFBBBF10A0F80F23F
:103BF0009580DFF8040300680799491F5FFA8BFB83
:103C0000B1EB0B01282202FB010006900020804648
:103C10005FFA88F8B8F1280F1CDA0020C0B2082833
:103C200015DADFF8E8125FFA88F85FEAC80252FA9C
:103C300080F2069B5FFA88F818F80330D0F1070C81
:103C400053FA0CF313F001035354401CE6E718F148
:103C50000108DDE70198052148432D308146DFF852
:103C6000AC0219EB0000C07801280DD1DFF89C02EE
:103C700019EB00008078012806D1DFF8900219EBDB
:103C800000004078012805D00298814502DA19F138
:103C90000109E4E70298814505DA18A85FFA8BFB71
:103CA00040F82B9005E0029818A95FFA8BFB41F8C9
:103CB0002B0004980521484341308246DFF84C022E
:103CC0001AEB000010F8030C01280FD1DFF83C02BA
:103CD0001AEB000010F8020C012807D1DFF82C02C3
:103CE0001AEB000010F8010C012805D0039850458C
:103CF00002DABAF1010AE1E70398504505DA22A891
:103D00005FFA8BFB40F82BA005E0039822A95FFA2D
:103D10008BFB41F82B001BF1010B64E7002083466D
:103D20005FFA8BFBBBF1090F24DA22A85FFA8BFB49
:103D300010EB8B00406822A95FFA8BFB51F82B1027
:103D4000401A35A95FFA8BFB41F82B0018A85FFADF
:103D50008BFB10EB8B00406818A95FFA8BFB51F8C6
:103D60002B10401A2CA95FFA8BFB41F82B001BF19A
:103D7000010BD5E7002083465FFA8BFBBBF1080FF0
:103D800052DA35A85FFA8BFB10EB8B00406835A93F
:103D90005FFA8BFB51F82B10401A10A95FFA8BFBCE
:103DA00041F82B002CA85FFA8BFB10EB8B004068CE
:103DB0002CA95FFA8BFB51F82B10401A08A95FFA67
:103DC0008BFB41F82B0010A85FFA8BFB50F82B00FF
:103DD000012805DB10A85FFA8BFB50F82B0005E0EB
:103DE00010A85FFA8BFB50F82B004042052802DA3E
:103DF0000598401C059008A85FFA8BFB50F82B0033
:103E0000012805DB08A85FFA8BFB50F82B0005E0C2
:103E100008A85FFA8BFB50F82B004042052800DA17
:103E2000641C1BF1010BA7E70598062802DB0120A3
:103E30008DF80100062C02DB01208DF800009DF8B2
:103E40000100002805D09DF80000002801D00120C5
:103E500002E0002000E000200DF5337DBDE8F08F8A
:103E600030B402000800082392FBF3F3DFF894401B
:103E70002468282505FB00441B5D082492FBF4F50B
:103E800005FB1425D5F107042341DB072BD50823B7
:103E900092FBF3F3DFF86C402468282505FB00440F
:103EA0001B1913F8283C082492FBF4F505FB142594
:103EB000D5F107042341DB0715D5082392FBF3F363
:103EC000DFF840402468282505FB00441B1913F83F
:103ED000503C082492FBF4F505FB1425D5F10704AA
:103EE0002341DB0703D40A2801DB401EBBE730BCBB
:103EF00070470000C013FF1FE075FF1FB805FF1FCC
:103F00009404FF1FE075FF1F7C11FF1F8012FF1F2D
:103F100080B5012301220B21042001F0C3FA012303
:103F200001220A21042001F0BDFA01230122092106
:103F3000042001F0B7FA012301220821042001F036
:103F4000B1FA01BD10B50400FFF7E2FFDFF8EC079E
:103F5000006830F48060DFF8E4170860142001F096
:103F600027FBDFF8D807006850F48060DFF8CC1733
:103F70000860142001F01CFBCB2000F001F939206F
:103F800000F0DDF92C2000F0DAF9002000F0D7F97C
:103F9000342000F0D4F9022000F0D1F9CF2000F055
:103FA000EFF8002000F0CBF9C12000F0C8F9302074
:103FB00000F0C5F9E82000F0E3F8852000F0BFF933
:103FC000002000F0BCF9782000F0B9F9EA2000F0F8
:103FD000D7F8002000F0B3F9002000F0B0F9ED2090
:103FE00000F0CEF8642000F0AAF9032000F0A7F951
:103FF000122000F0A4F9812000F0A1F9F72000F0D0
:10400000BFF8202000F09BF9C02000F0B9F8232071
:1040100000F095F9C12000F0B3F8102000F08FF9FE
:10402000C52000F0ADF83E2000F089F9282000F00E
:1040300086F9C72000F0A4F8862000F080F9362029
:1040400000F09EF8E4B2002C03D0E82000F077F9ED
:1040500002E0282000F073F93A2000F091F8552092
:1040600000F06DF9B12000F08BF8002000F067F946
:10407000182000F064F9B62000F082F8082000F063
:104080005EF9822000F05BF9272000F058F9F22059
:1040900000F076F8002000F052F9262000F070F8C9
:1040A000012000F04CF9E02000F06AF80F2000F049
:1040B00046F9312000F043F92B2000F040F90C20A4
:1040C00000F03DF90E2000F03AF9082000F037F931
:1040D0004E2000F034F9F12000F031F9372000F0E3
:1040E0002EF9072000F02BF9102000F028F903200A
:1040F00000F025F90E2000F022F9092000F01FF948
:10410000002000F01CF9E12000F03AF8002000F057
:1041100016F90E2000F013F9142000F010F9032016
:1041200000F00DF9112000F00AF9072000F007F95E
:10413000312000F004F9C12000F001F9482000F01E
:10414000FEF8082000F0FBF80F2000F0F8F80C2033
:1041500000F0F5F8312000F0F2F8362000F0EFF82A
:104160000F2000F0ECF8112000F00AF8142001F004
:104170001FFA292000F004F82C2000F001F810BDEF
:10418000DFF8B815096831F40061DFF8B025116077
:10419000C0B2C109C9B2DFF8A425126861F349228F
:1041A000DFF898150A60DFF89415096831F480711A
:1041B000DFF888251160DFF88415096851F48071F3
:1041C000DFF878251160C0B28109C9B2DFF86C252B
:1041D000126861F34922DFF864150A60DFF85C15A4
:1041E000096831F48071DFF854251160DFF84C154F
:1041F000096851F48071DFF844251160C0B24109AB
:10420000C9B2DFF83825126861F34922DFF82C15AE
:104210000A60DFF82815096831F48071DFF81C2581
:104220001160DFF81815096851F48071DFF80C256A
:104230001160C0B20109C9B2DFF80025126861F34C
:104240004922DFF8F8140A60DFF8F014096831F445
:104250008071DFF8E8241160DFF8E014096851F498
:104260008071DFF8D8241160C0B2C108C9B2DFF88C
:10427000CC24126861F34922DFF8C0140A60DFF829
:10428000BC14096831F48071DFF8B0241160DFF8E4
:10429000AC14096851F48071DFF8A0241160C0B239
:1042A0008108C9B2DFF89424126861F34922DFF86B
:1042B0008C140A60DFF88414096831F48071DFF827
:1042C0007C241160DFF87414096851F48071DFF800
:1042D0006C241160C0B24108C9B2DFF860241268D2
:1042E00061F34922DFF854140A60DFF850140968BA
:1042F00031F48071DFF844241160DFF8401409685C
:1043000051F48071DFF834241160C0B2DFF82C144E
:10431000096860F34921DFF824241160DFF81C14D8
:10432000096831F48071DFF814241160DFF80C148F
:10433000096851F48071DFF8042411607047DFF8D8
:10434000FC13096851F40061DFF8F0231160C0B27A
:10435000C109C9B2DFF8E423126861F34922DFF82A
:10436000DC130A60DFF8D413096831F48071DFF8D8
:10437000CC231160DFF8C413096851F48071DFF8B1
:10438000BC231160C0B28109C9B2DFF8B023126842
:1043900061F34922DFF8A4130A60DFF8A01309686B
:1043A00031F48071DFF894231160DFF8901309680D
:1043B00051F48071DFF884231160C0B24109C9B2A1
:1043C000DFF87823126861F34922DFF870130A607E
:1043D000DFF86813096831F48071DFF86023116039
:1043E000DFF85813096851F48071DFF85023116029
:1043F000C0B20109C9B2DFF84423126861F349224F
:10440000DFF838130A60DFF83413096831F480717B
:10441000DFF828231160DFF82413096851F4807154
:10442000DFF818231160C0B2C108C9B2DFF80C234D
:10443000126861F34922DFF804130A60DFF8FC1206
:10444000096831F48071DFF8F4221160DFF8EC12B2
:10445000096851F48071DFF8E4221160C0B281086C
:10446000C9B2DFF8D822126861F34922DFF8CC1212
:104470000A60DFF8C812096831F48071DFF8BC22E5
:104480001160DFF8B812096851F48071DFF8AC22CE
:104490001160C0B24108C9B2DFF8A022126861F30E
:1044A0004922DFF898120A60DFF89012096831F4A7
:1044B0008071DFF888221160DFF88012096851F4FA
:1044C0008071DFF878221160C0B2DFF870120968DD
:1044D00060F34921DFF864221160DFF86012096897
:1044E00031F48071DFF854221160DFF8501209684E
:1044F00051F48071DFF844221160704710B5040058
:10450000200AC0B2FFF71BFF2000C0B2FFF717FF61
:1045100010BDF8B504000D0016001F002A20FFF79B
:104520002FFE200AC0B2FFF70AFF2000C0B2FFF73B
:1045300006FF280AC0B2FFF702FF2800C0B2FFF74B
:10454000FEFE2B20FFF71CFE300AC0B2FFF7F7FE7D
:104550003000C0B2FFF7F3FE380AC0B2FFF7EFFE3B
:104560003800C0B2FFF7EBFE2C20FFF709FEF1BDCB
:104570002DE9F04182B004000D0016001F00DDF8A7
:104580002080CDF800803B003200D2B2290020000C
:1045900000F032F8BDE8F3812DE9F84304000D0086
:1045A00016001F00DDF820805FF000093078002839
:1045B00020D0307880280EDACDF800803B003278A9
:1045C00029005FFA89F914EBC900FFF7D1FF761CC7
:1045D00019F10109EAE7CDF800803B00320029001B
:1045E0005FFA89F914EBC90000F03CF8B61C19F128
:1045F0000209DBE7BDE8F1832DE9F84F04000D0067
:1046000016001F00DDF8288015F10F032A00E11DB8
:104610002000FFF77EFF00208146B9F1100F1FD266
:10462000DFF82404F6B219EB061111F800B00020EF
:104630008246BAF1080F10D25FFA8BFB5FEA0B607B
:1046400003D53800FFF75AFF02E04046FFF756FF58
:104650005FEA4B0B1AF1010AEBE719F10109DCE7FC
:10466000BDE8F18F2DE9F14F0C0015001E000A9FE7
:1046700014F10F032200009810F10F010098FFF7CA
:1046800048FF00208246BAF1400F3BD2DFF8BC035E
:10469000232101FB0A000078297888422FD1DFF816
:1046A000AC03232101FB0A0040786978884226D1B7
:1046B00000208046B8F1200F21D2DFF8900323219B
:1046C00001FB0A0018EB000090F803B000208146BF
:1046D000B9F1080F10D21FFA8BFB5FEA0B6003D50C
:1046E0003000FFF70BFF02E03800FFF707FF5FEA3B
:1046F0004B0B19F10109EBE718F10108DAE71AF1A0
:10470000010AC0E7BDE8F18F70B50400EF23002275
:1047100040F23F110020FFF7FCFE00200500F02DC5
:104720000BD200200600B6F5A07F04D22000FFF7D0
:10473000E5FE761CF7E76D1CF1E770BD00F10F4058
:104740002DE9F44F8AB004000D009A46149E159F7F
:104750005FF000085FF00009002081460A985FFAC8
:1047600089F919F8000000280CD00A985FFA89F935
:1047700019F8000001A95FFA89F909F8010019F197
:104780000109EBE7202001A95FFA89F909F8010086
:1047900019F10109BAF1000F0BD52D2001A95FFA1B
:1047A00089F909F8010019F101095FF0FF3000FBF8
:1047B0000AFABAF10A0F0EDA1AF1300001A95FFA0B
:1047C00089F909F80100002001A95FFA89F919EBBC
:1047D00001014870E0E0BAF10A0F1FDBBAF1640F83
:1047E0001CDA0A209AFBF0F0303001A95FFA89F94F
:1047F00009F801000A209AFBF0F100FB11A030300B
:1048000001A95FFA89F919EB01014870002001A99B
:104810005FFA89F919EB01018870BDE0BAF57A7F7A
:104820002BDA64209AFBF0F0303001A95FFA89F9A5
:1048300009F801000A209AFBF0F00A2190FBF1F23E
:1048400001FB1200303001A95FFA89F919EB01016F
:1048500048700A209AFBF0F100FB11A0303001A94A
:104860005FFA89F919EB01018870002001A95FFA4C
:1048700089F919EB0101C8708EE042F2107082458F
:104880003BDA4FF47A709AFBF0F0303001A95FFA0E
:1048900089F909F8010064209AFBF0F00A2190FBE5
:1048A000F1F201FB1200303001A95FFA89F919EB2E
:1048B000010148700A209AFBF0F00A2190FBF1F206
:1048C00001FB1200303001A95FFA89F919EB0101EF
:1048D00088700A209AFBF0F100FB11A0303001A98A
:1048E0005FFA89F919EB0101C870002001A95FFA8C
:1048F00089F919EB010108714EE0DFF8AC0182453E
:104900004ADA42F210709AFBF0F0303001A95FFAF7
:1049100089F909F801004FF47A709AFBF0F00A2146
:1049200090FBF1F201FB1200303001A95FFA89F926
:1049300019EB0101487064209AFBF0F00A2190FB0A
:10494000F1F201FB1200303001A95FFA89F919EB8D
:10495000010188700A209AFBF0F00A2190FBF1F225
:1049600001FB1200303001A95FFA89F919EB01014E
:10497000C8700A209AFBF0F100FB11A0303001A9A9
:104980005FFA89F919EB01010871002001A95FFAAA
:1049900089F919EB010148715FF0000B5FFA8BFB9D
:1049A000BBF1070F0CDA00973B00202229005FFAC9
:1049B0008BFB14EBCB00FFF7DBFD1BF1010BEDE7ED
:1049C0000020814601A85FFA89F919F80000002843
:1049D00036D001A85FFA89F919F80000802812DAA8
:1049E0000097330001A85FFA89F919F8002029001F
:1049F0005FFA88F814EBC800FFF7BAFD19F1010956
:104A000018F1010811E00097330001A85FFA89F955
:104A100019F8002029005FFA88F814EBC800FFF7A6
:104A200021FE19F1020918F1020800973B0020222B
:104A300029005FFA88F814EBC800FFF799FDC1E779
:104A40000BB0BDE8F08F0000E005FF1FE00DFF1F79
:104A5000F8B50400EF23002240F23F110020FFF7D9
:104A600058FD00200500F02D1DDA00200600282E3C
:104A700017DA00200700082F11DA282000FB054074
:104A8000305C80213941084203D00020FFF736FD19
:104A900003E04FF6FF70FFF731FD7F1CEBE7761C5C
:104AA000E5E76D1CDFE7F1BDA08601002DE9FF4FB2
:104AB00083B05FF000095FF0000ABDF81400BDF894
:104AC0000C10401A8346BDF81800BDF81010401AAB
:104AD0000500BDF80C000700BDF810008046BBF1D2
:104AE000010F02DB012001900AE0BBF1000F02D1AF
:104AF0000020019004E05FF0FF300190DBF1000B3B
:104B0000012D02DB0120009008E0002D02D10020E1
:104B1000009003E05FF0FF3000906D425D4501DAE8
:104B20005E4600E02E0000200400701CA4B2A042EB
:104B300018DB414689B2380080B200F016F81BEB52
:104B4000090915EB0A0A4E4503DAB9EB0609019883
:104B5000C719564504DABAEB060A009810EB0808A4
:104B6000641CE2E707B0BDE8F08F38B504000D0023
:104B7000ADB22B00ADB22A00A4B22100A4B2200035
:104B8000FFF7C7FC4FF47840FFF7B8FC31BDF8B52C
:104B900004000D001600ADB26B1CADB26A1EA4B2CB
:104BA000611CA4B2601EFFF7B4FC00200700FFB236
:104BB000092F05DAB6B23000FFF7A0FC7F1CF6E73C
:104BC000F1BD50F8041B61B150F8042BD30744BF6A
:104BD000A9F101039A180023091F42F8043BFAD1F6
:104BE000EFE77047010040F10980F446404200F0D1
:104BF00005F851F000416047010000BF09D0B0FA4C
:104C000080F18840C91CC1F58461090501EBD02100
:104C100040057047F0B540F2FF7581EA030C0CF0D7
:104C2000004C15EA11541DBF15EA1357AC42AF42B0
:104C3000E5E0BC41C1F31301C3F31303801A9941AA
:104C400043F4801304D2641E400049418018594146
:104C5000C90241EA5051B1FBF3F603FB1611A2FB66
:104C60000675D7EBC020A94102D2761E80185941A3
:104C7000C90241EA5051B1FBF3FE03FB1E11A2FB36
:104C80000E75D7EBC020A94103D2AEF1010E8018FA
:104C90005941890241EA9051760546EA8E2EB1FBD0
:104CA000F3F603FB1611A2FB0675D7EB8020A94192
:104CB00002D2761E80185941C90241EA50514EEA8B
:104CC000060EB1FBF3F603FB1611A2FB0675D7EB3C
:104CD000C020A94102D2761E80185941C90241EA7A
:104CE0005051B1FBF3F703FB1711A2FB0735D3EBD0
:104CF000C020A94167F100070CBF004247F001073F
:104D000066F3D5274FEA1E31B80814F5806412DD2A
:104D1000BD0775F1004250EB0E5051EB045111F5F7
:104D2000801F5CBF41EA0C01F0BD4CF07F6141F097
:104D3000E0410020F0BDBD076D0840EA0E5041F48F
:104D40008011D4F10104B4F120060ADAC4F120067E
:104D50000200E04001FA06F3E1401843B240154377
:104D60000EE0342C13DCC6F1200445EA40056D0842
:104D700020FA06F2154321FA06F0A1400D43002166
:104D800075F1004250F1000051EB0C01F0BD002024
:104D90005FEA0C01F0BDCFB992185B41B3FA83F71B
:104DA00004BFB2FA82F6BF190B3FB7F120062FBF3E
:104DB00002FA06F3BB40C7F1200622FA06F638BF16
:104DC0003343BA401CB1E419641E33E77F4231F02B
:104DD0000041B1FA81F404BFB0FA80F6A4190B3C8B
:104DE000B4F120062FBF00FA06F1A140C4F120065D
:104DF00020FA06F638BF3143A0403C1B1AE7AC420C
:104E00001ABF05EA1357AF4212E050EA41061CBF31
:104E100052EA4306BFE750EA4107304661461CBFED
:104E200041EA0551F0BD52EA430C08BFC143F0BD51
:104E300000204FF4001616EB410F98BF16EB430FFE
:104E400008BF16EB410F24BFC14305E016EB430F2B
:104E50000CBF61464CEA0551F0BD0000F446400D20
:104E600040EAC120490006D200F00EF8004248BFD7
:104E70006FF00040604700F007F84FF000418842B3
:104E80008CBF08464042604740F00040490DA1F504
:104E90008061491C05D4D1F11F0154BFC840C0171F
:104EA00070474FF000007047B0B581EA030C0CF07A
:104EB000004C40F2FF7515EA11541DBF15EA135757
:104EC000AC42AF4239E0E41923EA455343F480137E
:104ED000C90241F0004141EA505EC7021100A7FB40
:104EE000020200284FF00000EEFB01204FF000010D
:104EF000E3FB072118BF42F001024018002149419D
:104F0000E3FB0E01A4F580640F0302D2520040417E
:104F1000494154F101046CDD470872F1004250F13F
:104F2000000051EB0451A1F580115CBF41EA0C0176
:104F3000B0BD4CEA05510020B0BD05EA1357AC42A4
:104F400014BFAF4241E050EA410E1CBF52EA430E8B
:104F500002E061460020B0BD24423C441BD15FEA20
:104F6000070EF6D0090302BF01460020AEF1140E71
:104F7000B1FA81F7AEEB070401FA07FE0C37C7F16F
:104F8000200100FA07F7C8404EEA000E23EA455315
:104F900043F48013A2E733F00043B3FA83F704BF6E
:104FA000B2FA82FE77440B3FE41BB7F1200E2FBF0D
:104FB00002FA0EF3BB40C7F1200E22FA0EFE38BFF4
:104FC00043EA0E03BA40641C82E750EA410E14BF64
:104FD00052EA430E6FF000014FF4001717EB430F36
:104FE0008ABF194617EB410FB5E74CEA055100207F
:104FF000B0BDD4F10104B4F120070FDAC4F12007E9
:10500000520828BF42F0010210FA07F501FA07F72B
:10501000E1BF2A43E0403843E1400FE0352C98DC03
:10502000C7F1200452EA400220FA07F218BF42F00A
:10503000010231FA07F0A1400A43002172F1004257
:1050400050F1000051EB0C01B0BD000070B44FF006
:10505000004591EA030C44BF6B4000F033B900BF38
:10506000841A71EB030603D2001BB141121973417C
:105070004FF4001C1CEB410F34BF7CEB430443E0B6
:105080000C0DA4EB1356352E50DC45EAC323DB0A86
:1050900045EAC121C912B6F120050DDD63FA05F616
:1050A000EB4086EA0305124218BF45F00105C0181F
:1050B00051F100010CD213E062FA06F5F2405540BE
:1050C000F3415A40B340F3405A408018594107D346
:1050D00049085FEA30005FEA350528BF45F0010561
:1050E00001F58011420875F1004250F1000041EBDA
:1050F000045170BC4FF4001C1CEB410F38BF7047CB
:105100000020090D090570471CEB410F10D252EA2F
:1051100043060BD0BCEB410F05D80C0DAB43661E0C
:10512000342EB5DD02E0AB438018594170BC7047A6
:1051300070BC7047002840F10980F446404200F0FE
:1051400005F850F000406047002800BF0AD0B0FAD0
:1051500080F18840D1F19D01C905020672F100423B
:1051600041EB10207047000070B504000D00686826
:10517000A8606C60E86828612968686800F02AFA0D
:1051800006005FF07E50296800F090FA296900F06F
:1051900021FA310000F0FEFAE860E86870BD000016
:1051A0004100090E7F3915D4D1F11F0114D44000FC
:1051B00007D2C00140F00040C84048BF6FF0004037
:1051C0007047C00140F00040C8404CBF4FF0004065
:1051D000404270470020704700424FF0004058BFE7
:1051E000C043704730B40200FF24002000252B008C
:1051F0009BB289B28B420BD29BB29D5CE4B2A542BA
:1052000004D29BB29D5C2C001D0028005B1CEFE7C4
:10521000C0B230BC704730B40200FF24002000252B
:105220002B009BB289B28B420BD29BB29D5CE4B245
:10523000AC4204D39BB29D5C2C001D0028005B1C7B
:10524000EFE7C0B230BC704730B402000020002548
:105250002B00DBB2C9B28B420ED200252C00E4B287
:10526000082C07DADBB29D5C254115F001052818F2
:10527000641CF4E75B1CECE730BC704710B4020020
:10528000002489B2002902D15FF0FF300EE0002037
:1052900003009BB289B28B4205D29BB252F8230025
:1052A00004195B1CF5E789B294FBF1F010BC704760
:1052B00070B44FF0004591EA030F44BF6B40FFF715
:1052C000CFBE00BF841A71EB030604D26E40001BF0
:1052D000B141121973414FF4001C1CEB410F34BF54
:1052E0007CEB430684E00C0DA4EB1356362E7DDCDC
:1052F000012E43DC45EAC32343EA525312BFD202D4
:1053000092025B08240545EAC12141EA5051D2EBE3
:10531000C020994125D407D1B0FA80F610FA06F1E1
:1053200064D00020203608E0B1FA81F6B140C6F121
:10533000200220FA02F21143B0404FEAF474B4EBB9
:10534000465434F001064FEA74040AD8D6F5001624
:10535000760D04F00044F04061FA06F25040F1404E
:105360004840C00A40EA415021F0004128BF5FEAAE
:10537000500550F1000044EBD12137E045EAC3234A
:10538000DB0A45EAC121C90AB6F120050EDD42EA71
:105390000242120CC5F1200603FA06F6EB4042EA7F
:1053A00006056D42984161F100010DE062FA06F5D3
:1053B000F240554063FA06FC82EA0C02F3405A4080
:1053C0006D42904161EB030111F4801F05D1641E11
:1053D000620502D06D004041494121F4801143082B
:1053E00075F1004350F1000041EB045170BC70476F
:1053F0001CEB410F15D223F0004352EA43060BD0B9
:105400004FEA4C0CBCEB410F04D80C0D661E342E39
:10541000B7DDEBE7801A994150EA410608BF002149
:10542000E4E708BF1CEB430F28BF6FF00001DDE786
:1054300080B5002301221821042000F033F800F089
:1054400001F801BD80B51648006850F0807014491D
:1054500008600A2000F0ACF81148006830F0807055
:105460000F49086001BD0E49096851F080710C4A6E
:105470001160012101708188418070470178012904
:105480000DD14188002907D10549096831F08071A3
:10549000034A1160002101704188491E4180704714
:1054A00000F10F40F8B504000D0016001F00EDB22A
:1054B000202D02D2FFB2022F03D32421384800F05E
:1054C000ABF93848E4B250F82400EDB2F6B256F425
:1054D000807140F82510F00705D5F6B2032E02D0F2
:1054E000F6B2132E0DD13048E4B250F824004069D2
:1054F0000121A94088432C49E4B251F824104861A5
:105500002AE02948E4B250F8240040690121A9406A
:1055100008432549E4B251F824104861FFB2012F35
:105520000DD12148E4B250F8240000680121A940BF
:1055300008431D49E4B251F8241008600CE01A48F1
:10554000E4B250F8240000680121A94088431649BC
:10555000E4B251F824100860F1BD30B4C0B2420981
:1055600010F01F03114C24684FF4007595402C4334
:105570000E4D2C6031F4E0610A4CD2B254F8224056
:10558000DBB254F8234014F4E0642143054CD2B25A
:1055900054F82240DBB244F8231030BC70470000BE
:1055A00000A800005804FF1F4404FF1F3880044077
:1055B00000231900814209D2054B1B681A00002AFA
:1055C00002D000BF521EFAE7491CF3E77047000003
:1055D000EC75FF1FFF2212EAD05C1DBF12EAD15307
:1055E000944593422BE09C44D30780EA01021A4081
:1055F00043EA002043EA0121A1FB0030410038BF0B
:1056000040007CF17F010BDBFE294ADA5B0842EAAD
:10561000C15153EA006373F1004C51EB1020704705
:10562000D1F1080CDCF120012FDB5B0810FA01F14D
:105630000B4373F1004120FA0CF050417047944540
:105640001CBF02EAD153934280EA010202F00042F9
:105650001DD0400019D0490017D05BB9634514D064
:105660000902B1FA81F39940BCEB030CC00140F090
:105670000040C1E70002B0FA80FC10FA0CF0B3EB76
:105680000C0CC90141F00041B6E710007047400022
:105690000AD0490008D010F1807F94BF11F1807FBB
:1056A00002E042F0FF407047D043704790EA010F9C
:1056B00044BF81F0004100F075B800BF431A4FF0BD
:1056C00000423EBF5340C01AC91800BFD3095FEA69
:1056D000D05C13EB400F34BFB3EB410F40E07CEBE9
:1056E000D1530CD342EA012122D8D1EB402009D377
:1056F000400A28BF5FEA500140EBCC507047401A87
:1057000015D04002B0FA80F2521C9040400A4FEA95
:105710003C23B3EB026384BF00EB730007E040F46B
:1057200000001A16DB07C2F10102D040184370478F
:10573000182BFCDC31FA03F202FA03F3591A38BFD2
:1057400042F00102D2EB40203CBF4000ACF1010C22
:105750005FEACC5CC20572F100414CEB502070470F
:1057600013EB400F0FD24B0009D0ACEBD153022BFF
:1057700003DB4902172BDDDD70479143401A4300DC
:10578000D5D10020704713EB410FD0D36FF000004C
:105790007047000090EA010F44BF81F00041FFF71D
:1057A0008DBF00BF421A3CBF801A89184FF0004CD1
:1057B000C0F3C752FF2A24D0C1F3C75313B3D21A80
:1057C000D2F1190327DD4CEA01214CFA03F321EA57
:1057D0000303D140C20D4CEA0020401834BF20EA38
:1057E0000C004CEA5000D20553EA006373EB0C0C3A
:1057F00052EB1020420012F1807F38BF7047C00D7D
:10580000C0057047490212BF9A4200EB5120F8E7E9
:10581000D2F11703D9D5704738B504000D002A001E
:105820002100024800F0A1FAF9E700BFB8A6000085
:1058300070B504000D0016003068012802D002285F
:1058400005D00AE02000C0B27168884705E0B06862
:105850000470B068401CB060FFE72868401C2860F6
:1058600070BD2DE9F04704005FF0000A5046A146E4
:105870005FF0000A89F800A019F10109002A1FD081
:10588000D1F800A05546002D05D15FF0300A89F807
:1058900000A0401C38E0002D36D095FBF3FA5646A8
:1058A00003FB165A5746002F02D5FF43313700E05D
:1058B0003037350089F8007019F10109401CEAE71A
:1058C000D1F800A0D446BCF1000F05D15FF0300A3A
:1058D00089F800A0401C17E0BCF1000F14D0BCFBFD
:1058E000F3FAD64603FB1ECAD046B8F10A0F02D21D
:1058F00018F1300801E018F13708F44689F8008003
:1059000019F10109401CE7E7BDE8F0872DE9F041F6
:1059100004000D0016001F00A046A84507DA3A0053
:1059200031003020FFF784FF18F10108F5E7BDE8EA
:10593000F0812DE9F04104000D0016001F00A04683
:10594000A84507DA3A0031002020FFF771FF18F16F
:105950000108F5E7BDE8F0812DE9F24F92B00400AF
:10596000150000200090129883469BF800000190DB
:105970000198002800F0F5810198252813D001989E
:105980000A2805D0220000A90198FFF751FF09E07D
:10599000220000A90D20FFF74BFF220000A90A20DA
:1059A000FFF746FFDAE100208146002004900498CA
:1059B000002822D11BF1010B9BF8000020280ED0FB
:1059C000232812D02B2807D02D2802D0302809D028
:1059D0000EE059F00109EAE759F00209E7E759F04A
:1059E0000409E4E759F00809E1E759F01009DEE796
:1059F000BBF1010B01200490D9E700208246002072
:105A000004900498002814D11BF1010B9BF80000AE
:105A1000019001983038092806D80A20019900FB26
:105A20000A10B0F1300AECE7BBF1010B0120049041
:105A3000E7E71BF1010B9BF800002E2811D1002095
:105A40000490049800280ED11BF1010B9BF8000074
:105A50003038092800D8F4E7BBF1010B012004908D
:105A6000EFE7BBF1010B1BF1010B9BF800004C2889
:105A700006D0682802D06C2801D002E003E002E0E2
:105A800001E0BBF1010B1BF1010B9BF80000019041
:105A90000198582875D0622800F0D580632800F05E
:105AA0001D81642813D0692811D06E2800F04A8126
:105AB0006F2800F0BD80702800F0D080732800F0BF
:105AC0001781752800F0D58078285AD041E12868E0
:105AD0002D1D06900A23012206A909A8FFF7C1FE81
:105AE000070009A8381806000698002803D52D20BD
:105AF00003907F1C0FE05FEA897003D52B20039091
:105B00007F1C08E05FEA497003D5202003907F1CCA
:105B100001E000200390002005905FEA097011D594
:105B20000398002804D0220000A90398FFF780FE04
:105B300001200590230000AA51463800FFF7E6FE39
:105B4000574612E05FEAC9700FD4230000AA5146FD
:105B50003800FFF7EEFE0398002804D0220000A9C9
:105B60000398FFF765FE012005900598002807D1EE
:105B70000398002804D0220000A90398FFF758FEDC
:105B800098E028682D1D02901023002202A909A880
:105B9000FFF767FE070009A83818060000200590E7
:105BA0005FEA097016D55FEAC9600BD5220000A92B
:105BB0003020FFF73DFE220000A97820FFF738FED5
:105BC00001200590230000AA51463800FFF79EFEF1
:105BD00057461BE05FEAC97018D45FEAC96000D578
:105BE000BF1C230000AA51463800FFF7A2FE5FEA5F
:105BF000C9600BD5220000A93020FFF719FE220052
:105C000000A97820FFF714FE012005905FEAC96023
:105C10000DD5059800280AD1220000A93020FFF7F1
:105C200007FE220000A97820FFF702FEBF1C41E01A
:105C300028682D1D02900823002202A909A8FFF759
:105C400010FE07001FE028682D1D0290022300228D
:105C500002A909A8FFF705FE070014E028682D1D1A
:105C600002901023002202A909A8FFF7FAFD0700FD
:105C700009E028682D1D02900A23002202A909A824
:105C8000FFF7EFFD070009A8381806005FEA097062
:105C900007D5230000AA51463800FFF737FE5746C4
:105CA00008E05FEAC97005D4230000AA5146380015
:105CB000FFF73FFE3078002806D0220000A9307898
:105CC000FFF7B6FD761EF5E75FEAC97005D523003C
:105CD00000AA51463800FFF72CFE3FE028682D1D32
:105CE000C0B20790220000A90798FFF7A1FD35E098
